{
  "contractName": "GenericOracle",
  "abi": [
    {
      "inputs": [
        {
          "internalType": "address",
          "name": "_iexecHubAddr",
          "type": "address"
        }
      ],
      "stateMutability": "nonpayable",
      "type": "constructor"
    },
    {
      "anonymous": false,
      "inputs": [
        {
          "indexed": true,
          "internalType": "address",
          "name": "previousOwner",
          "type": "address"
        },
        {
          "indexed": true,
          "internalType": "address",
          "name": "newOwner",
          "type": "address"
        }
      ],
      "name": "OwnershipTransferred",
      "type": "event"
    },
    {
      "anonymous": false,
      "inputs": [
        {
          "indexed": true,
          "internalType": "bytes32",
          "name": "id",
          "type": "bytes32"
        },
        {
          "indexed": true,
          "internalType": "bytes32",
          "name": "oracleCallID",
          "type": "bytes32"
        },
        {
          "indexed": false,
          "internalType": "uint256",
          "name": "date",
          "type": "uint256"
        },
        {
          "indexed": false,
          "internalType": "bytes",
          "name": "value",
          "type": "bytes"
        }
      ],
      "name": "ValueUpdated",
      "type": "event"
    },
    {
      "inputs": [],
      "name": "iexecproxy",
      "outputs": [
        {
          "internalType": "contract IexecInterfaceToken",
          "name": "",
          "type": "address"
        }
      ],
      "stateMutability": "view",
      "type": "function"
    },
    {
      "inputs": [],
      "name": "m_authorizedApp",
      "outputs": [
        {
          "internalType": "address",
          "name": "",
          "type": "address"
        }
      ],
      "stateMutability": "view",
      "type": "function"
    },
    {
      "inputs": [],
      "name": "m_authorizedDataset",
      "outputs": [
        {
          "internalType": "address",
          "name": "",
          "type": "address"
        }
      ],
      "stateMutability": "view",
      "type": "function"
    },
    {
      "inputs": [],
      "name": "m_authorizedWorkerpool",
      "outputs": [
        {
          "internalType": "address",
          "name": "",
          "type": "address"
        }
      ],
      "stateMutability": "view",
      "type": "function"
    },
    {
      "inputs": [],
      "name": "m_requiredtag",
      "outputs": [
        {
          "internalType": "bytes32",
          "name": "",
          "type": "bytes32"
        }
      ],
      "stateMutability": "view",
      "type": "function"
    },
    {
      "inputs": [],
      "name": "m_requiredtrust",
      "outputs": [
        {
          "internalType": "uint256",
          "name": "",
          "type": "uint256"
        }
      ],
      "stateMutability": "view",
      "type": "function"
    },
    {
      "inputs": [],
      "name": "owner",
      "outputs": [
        {
          "internalType": "address",
          "name": "",
          "type": "address"
        }
      ],
      "stateMutability": "view",
      "type": "function"
    },
    {
      "inputs": [],
      "name": "renounceOwnership",
      "outputs": [],
      "stateMutability": "nonpayable",
      "type": "function"
    },
    {
      "inputs": [
        {
          "internalType": "address",
          "name": "newOwner",
          "type": "address"
        }
      ],
      "name": "transferOwnership",
      "outputs": [],
      "stateMutability": "nonpayable",
      "type": "function"
    },
    {
      "inputs": [
        {
          "internalType": "bytes32",
          "name": "",
          "type": "bytes32"
        }
      ],
      "name": "values",
      "outputs": [
        {
          "internalType": "bytes",
          "name": "value",
          "type": "bytes"
        },
        {
          "internalType": "uint256",
          "name": "date",
          "type": "uint256"
        }
      ],
      "stateMutability": "view",
      "type": "function"
    },
    {
      "inputs": [
        {
          "internalType": "address",
          "name": "_authorizedApp",
          "type": "address"
        },
        {
          "internalType": "address",
          "name": "_authorizedDataset",
          "type": "address"
        },
        {
          "internalType": "address",
          "name": "_authorizedWorkerpool",
          "type": "address"
        },
        {
          "internalType": "bytes32",
          "name": "_requiredtag",
          "type": "bytes32"
        },
        {
          "internalType": "uint256",
          "name": "_requiredtrust",
          "type": "uint256"
        }
      ],
      "name": "updateEnv",
      "outputs": [],
      "stateMutability": "nonpayable",
      "type": "function"
    },
    {
      "inputs": [
        {
          "internalType": "bytes32",
          "name": "_callID",
          "type": "bytes32"
        },
        {
          "internalType": "bytes",
          "name": "",
          "type": "bytes"
        }
      ],
      "name": "receiveResult",
      "outputs": [],
      "stateMutability": "nonpayable",
      "type": "function"
    },
    {
      "inputs": [
        {
          "internalType": "bytes32",
          "name": "_oracleId",
          "type": "bytes32"
        }
      ],
      "name": "getString",
      "outputs": [
        {
          "internalType": "string",
          "name": "stringValue",
          "type": "string"
        },
        {
          "internalType": "uint256",
          "name": "date",
          "type": "uint256"
        }
      ],
      "stateMutability": "view",
      "type": "function"
    },
    {
      "inputs": [
        {
          "internalType": "bytes32",
          "name": "_oracleId",
          "type": "bytes32"
        }
      ],
      "name": "getRaw",
      "outputs": [
        {
          "internalType": "bytes",
          "name": "bytesValue",
          "type": "bytes"
        },
        {
          "internalType": "uint256",
          "name": "date",
          "type": "uint256"
        }
      ],
      "stateMutability": "view",
      "type": "function"
    },
    {
      "inputs": [
        {
          "internalType": "bytes32",
          "name": "_oracleId",
          "type": "bytes32"
        }
      ],
      "name": "getInt",
      "outputs": [
        {
          "internalType": "int256",
          "name": "intValue",
          "type": "int256"
        },
        {
          "internalType": "uint256",
          "name": "date",
          "type": "uint256"
        }
      ],
      "stateMutability": "view",
      "type": "function"
    },
    {
      "inputs": [
        {
          "internalType": "bytes32",
          "name": "_oracleId",
          "type": "bytes32"
        }
      ],
      "name": "getBool",
      "outputs": [
        {
          "internalType": "bool",
          "name": "boolValue",
          "type": "bool"
        },
        {
          "internalType": "uint256",
          "name": "date",
          "type": "uint256"
        }
      ],
      "stateMutability": "view",
      "type": "function"
    }
  ],
  "bytecode": "0x60806040523480156200001157600080fd5b50604051620028433803806200284383398181016040528101906200003791906200024b565b80806200004a816200021360201b60201c565b156200009657806000806101000a81548173ffffffffffffffffffffffffffffffffffffffff021916908373ffffffffffffffffffffffffffffffffffffffff16021790555062000159565b620000bb733eca1b216a7df1c7689aeb259ffb83adfb894e7f6200021360201b60201c565b156200011b57733eca1b216a7df1c7689aeb259ffb83adfb894e7f6000806101000a81548173ffffffffffffffffffffffffffffffffffffffff021916908373ffffffffffffffffffffffffffffffffffffffff16021790555062000158565b6040517f08c379a00000000000000000000000000000000000000000000000000000000081526004016200014f90620002b9565b60405180910390fd5b5b505060006200016d6200022c60201b60201c565b905080600660006101000a81548173ffffffffffffffffffffffffffffffffffffffff021916908373ffffffffffffffffffffffffffffffffffffffff1602179055508073ffffffffffffffffffffffffffffffffffffffff16600073ffffffffffffffffffffffffffffffffffffffff167f8be0079c531659141344cd1fd0a4f28419497f9722a3daafe3b4186f6b6457e060405160405180910390a350506200033a565b600080823b905060008163ffffffff1611915050919050565b600033905090565b600081519050620002458162000320565b92915050565b6000602082840312156200025e57600080fd5b60006200026e8482850162000234565b91505092915050565b600062000286601a83620002db565b91507f696e76616c69642d696578656370726f78792d616464726573730000000000006000830152602082019050919050565b60006020820190508181036000830152620002d48162000277565b9050919050565b600082825260208201905092915050565b6000620002f98262000300565b9050919050565b600073ffffffffffffffffffffffffffffffffffffffff82169050919050565b6200032b81620002ec565b81146200033757600080fd5b50565b6124f9806200034a6000396000f3fe608060405234801561001057600080fd5b50600436106101005760003560e01c8063986e791a11610097578063e73482a211610066578063e73482a2146102b4578063f075b666146102d2578063f2fde38b146102f0578063f6eba5471461030c57610100565b8063986e791a14610203578063ca2ef3c414610234578063ccc2195f14610252578063dc97d9621461028357610100565b80637636ede7116100d35780637636ede71461016557806378dd4ae5146101965780637ae1cfca146101b45780638da5cb5b146101e557610100565b806318a4b2d014610105578063482fb13e146101215780635dd808551461013f578063715018a61461015b575b600080fd5b61011f600480360381019061011a9190611ceb565b61032a565b005b6101296103d5565b60405161013691906120be565b60405180910390f35b61015960048036038101906101549190611db4565b6103fb565b005b6101636104a7565b005b61017f600480360381019061017a9190611d8b565b6105ff565b60405161018d929190612146565b60405180910390f35b61019e6106d8565b6040516101ab91906120be565b60405180910390f35b6101ce60048036038101906101c99190611d8b565b6106fe565b6040516101dc9291906120d9565b60405180910390f35b6101ed6107e9565b6040516101fa91906120be565b60405180910390f35b61021d60048036038101906102189190611d8b565b610813565b60405161022b9291906121dc565b60405180910390f35b61023c6108ff565b60405161024991906120be565b60405180910390f35b61026c60048036038101906102679190611d8b565b610925565b60405161027a929190612146565b60405180910390f35b61029d60048036038101906102989190611d8b565b6109e1565b6040516102ab929190612191565b60405180910390f35b6102bc610acc565b6040516102c9919061224c565b60405180910390f35b6102da610ad2565b6040516102e79190612176565b60405180910390f35b61030a60048036038101906103059190611cc2565b610af6565b005b610314610cbd565b6040516103219190612102565b60405180910390f35b610332610cc3565b73ffffffffffffffffffffffffffffffffffffffff16600660009054906101000a900473ffffffffffffffffffffffffffffffffffffffff1673ffffffffffffffffffffffffffffffffffffffff16146103c1576040517f08c379a00000000000000000000000000000000000000000000000000000000081526004016103b89061222c565b60405180910390fd5b6103ce8585858585610ccb565b5050505050565b600160009054906101000a900473ffffffffffffffffffffffffffffffffffffffff1681565b6000606061040885610da3565b80602001905181019061041b9190611e0c565b91509150426007600084815260200190815260200160002060010181905550806007600084815260200190815260200160002060000190805190602001906104649291906114ca565b5084827f8840d3fb5fb5b788e2d83bfd555094b6139a5c777106a60ef825222dfe4450b24284604051610498929190612267565b60405180910390a35050505050565b6104af610cc3565b73ffffffffffffffffffffffffffffffffffffffff16600660009054906101000a900473ffffffffffffffffffffffffffffffffffffffff1673ffffffffffffffffffffffffffffffffffffffff161461053e576040517f08c379a00000000000000000000000000000000000000000000000000000000081526004016105359061222c565b60405180910390fd5b600073ffffffffffffffffffffffffffffffffffffffff16600660009054906101000a900473ffffffffffffffffffffffffffffffffffffffff1673ffffffffffffffffffffffffffffffffffffffff167f8be0079c531659141344cd1fd0a4f28419497f9722a3daafe3b4186f6b6457e060405160405180910390a36000600660006101000a81548173ffffffffffffffffffffffffffffffffffffffff021916908373ffffffffffffffffffffffffffffffffffffffff160217905550565b606060006060600760008581526020019081526020016000206000018054600181600116156101000203166002900480601f0160208091040260200160405190810160405280929190818152602001828054600181600116156101000203166002900480156106af5780601f10610684576101008083540402835291602001916106af565b820191906000526020600020905b81548152906001019060200180831161069257829003601f168201915b505050505090508060076000868152602001908152602001600020600101549250925050915091565b600260009054906101000a900473ffffffffffffffffffffffffffffffffffffffff1681565b6000806060600760008581526020019081526020016000206000018054600181600116156101000203166002900480601f0160208091040260200160405190810160405280929190818152602001828054600181600116156101000203166002900480156107ad5780601f10610782576101008083540402835291602001916107ad565b820191906000526020600020905b81548152906001019060200180831161079057829003601f168201915b50505050509050808060200190518101906107c89190611d62565b60076000868152602001908152602001600020600101549250925050915091565b6000600660009054906101000a900473ffffffffffffffffffffffffffffffffffffffff16905090565b606060006060600760008581526020019081526020016000206000018054600181600116156101000203166002900480601f0160208091040260200160405190810160405280929190818152602001828054600181600116156101000203166002900480156108c35780601f10610898576101008083540402835291602001916108c3565b820191906000526020600020905b8154815290600101906020018083116108a657829003601f168201915b50505050509050808060200190518101906108de9190611e89565b60076000868152602001908152602001600020600101549250925050915091565b600360009054906101000a900473ffffffffffffffffffffffffffffffffffffffff1681565b6007602052806000526040600020600091509050806000018054600181600116156101000203166002900480601f0160208091040260200160405190810160405280929190818152602001828054600181600116156101000203166002900480156109d15780601f106109a6576101008083540402835291602001916109d1565b820191906000526020600020905b8154815290600101906020018083116109b457829003601f168201915b5050505050908060010154905082565b6000806060600760008581526020019081526020016000206000018054600181600116156101000203166002900480601f016020809104026020016040519081016040528092919081815260200182805460018160011615610100020316600290048015610a905780601f10610a6557610100808354040283529160200191610a90565b820191906000526020600020905b815481529060010190602001808311610a7357829003601f168201915b5050505050905080806020019051810190610aab9190611e60565b60076000868152602001908152602001600020600101549250925050915091565b60055481565b60008054906101000a900473ffffffffffffffffffffffffffffffffffffffff1681565b610afe610cc3565b73ffffffffffffffffffffffffffffffffffffffff16600660009054906101000a900473ffffffffffffffffffffffffffffffffffffffff1673ffffffffffffffffffffffffffffffffffffffff1614610b8d576040517f08c379a0000000000000000000000000000000000000000000000000000000008152600401610b849061222c565b60405180910390fd5b600073ffffffffffffffffffffffffffffffffffffffff168173ffffffffffffffffffffffffffffffffffffffff161415610bfd576040517f08c379a0000000000000000000000000000000000000000000000000000000008152600401610bf49061220c565b60405180910390fd5b8073ffffffffffffffffffffffffffffffffffffffff16600660009054906101000a900473ffffffffffffffffffffffffffffffffffffffff1673ffffffffffffffffffffffffffffffffffffffff167f8be0079c531659141344cd1fd0a4f28419497f9722a3daafe3b4186f6b6457e060405160405180910390a380600660006101000a81548173ffffffffffffffffffffffffffffffffffffffff021916908373ffffffffffffffffffffffffffffffffffffffff16021790555050565b60045481565b600033905090565b84600160006101000a81548173ffffffffffffffffffffffffffffffffffffffff021916908373ffffffffffffffffffffffffffffffffffffffff16021790555083600260006101000a81548173ffffffffffffffffffffffffffffffffffffffff021916908373ffffffffffffffffffffffffffffffffffffffff16021790555082600360006101000a81548173ffffffffffffffffffffffffffffffffffffffff021916908373ffffffffffffffffffffffffffffffffffffffff16021790555081600481905550806005819055505050505050565b60606000606080610db385610e08565b925092509250828190610dfc576040517f08c379a0000000000000000000000000000000000000000000000000000000008152600401610df391906121ba565b60405180910390fd5b50819350505050919050565b6000606080610e1561154a565b60008054906101000a900473ffffffffffffffffffffffffffffffffffffffff1673ffffffffffffffffffffffffffffffffffffffff1663adccf0d5866040518263ffffffff1660e01b8152600401610e6e9190612102565b60006040518083038186803b158015610e8657600080fd5b505afa158015610e9a573d6000803e3d6000fd5b505050506040513d6000823e3d601f19601f82011682018060405250810190610ec39190611f0b565b9050610ecd6115d4565b60008054906101000a900473ffffffffffffffffffffffffffffffffffffffff1673ffffffffffffffffffffffffffffffffffffffff1663b74861b283602001516040518263ffffffff1660e01b8152600401610f2a9190612102565b60006040518083038186803b158015610f4257600080fd5b505afa158015610f56573d6000803e3d6000fd5b505050506040513d6000823e3d601f19601f82011682018060405250810190610f7f9190611eca565b905060036004811115610f8e57fe5b82600001516004811115610f9e57fe5b14610fee576000826101c001516040518060400160405280601481526020017f726573756c742d6e6f742d617661696c61626c65000000000000000000000000815250945094509450505061136c565b600073ffffffffffffffffffffffffffffffffffffffff16600160009054906101000a900473ffffffffffffffffffffffffffffffffffffffff1673ffffffffffffffffffffffffffffffffffffffff1614158015611080575061107e600160009054906101000a900473ffffffffffffffffffffffffffffffffffffffff168260000151600001516004611373565b155b156110d0576000826101c001516040518060400160405280601081526020017f756e617574686f72697a65642d61707000000000000000000000000000000000815250945094509450505061136c565b600073ffffffffffffffffffffffffffffffffffffffff16600260009054906101000a900473ffffffffffffffffffffffffffffffffffffffff1673ffffffffffffffffffffffffffffffffffffffff16141580156111625750611160600260009054906101000a900473ffffffffffffffffffffffffffffffffffffffff168260200151600001516004611373565b155b156111b2576000826101c001516040518060400160405280601481526020017f756e617574686f72697a65642d64617461736574000000000000000000000000815250945094509450505061136c565b600073ffffffffffffffffffffffffffffffffffffffff16600360009054906101000a900473ffffffffffffffffffffffffffffffffffffffff1673ffffffffffffffffffffffffffffffffffffffff16141580156112445750611242600360009054906101000a900473ffffffffffffffffffffffffffffffffffffffff168260400151600001516004611373565b155b15611294576000826101c001516040518060400160405280601781526020017f756e617574686f72697a65642d776f726b6572706f6f6c000000000000000000815250945094509450505061136c565b6000801b8160a001511960045416146112f2576000826101c001516040518060400160405280600b81526020017f696e76616c69642d746167000000000000000000000000000000000000000000815250945094509450505061136c565b8060600151600554111561134b576000826101c001516040518060400160405280600d81526020017f696e76616c69642d747275737400000000000000000000000000000000000000815250945094509450505061136c565b6001826101c001516040518060200160405280600081525094509450945050505b9193909250565b60008273ffffffffffffffffffffffffffffffffffffffff168473ffffffffffffffffffffffffffffffffffffffff1614156113b257600190506114aa565b6113bb846114b1565b6113c857600090506114aa565b8373ffffffffffffffffffffffffffffffffffffffff1663d202158d8473ffffffffffffffffffffffffffffffffffffffff1660001b846040518363ffffffff1660e01b815260040161141c92919061211d565b60206040518083038186803b15801561143457600080fd5b505afa92505050801561146557506040513d601f19601f820116820180604052508101906114629190611d62565b60015b6114a5573d8060008114611495576040519150601f19603f3d011682016040523d82523d6000602084013e61149a565b606091505b5060009150506114aa565b809150505b9392505050565b600080823b905060008163ffffffff1611915050919050565b828054600181600116156101000203166002900490600052602060002090601f016020900481019282601f1061150b57805160ff1916838001178555611539565b82800160010185558215611539579182015b8281111561153857825182559160200191906001019061151d565b5b50905061154691906116a1565b5090565b604051806101e001604052806000600481111561156357fe5b815260200160008019168152602001600081526020016000815260200160008152602001600081526020016000815260200160008019168152602001600081526020016000815260200160608152602001600080191681526020016060815260200160008152602001606081525090565b604051806101e001604052806115e86116be565b81526020016115f56116be565b81526020016116026116be565b8152602001600081526020016000815260200160008019168152602001600073ffffffffffffffffffffffffffffffffffffffff168152602001600073ffffffffffffffffffffffffffffffffffffffff168152602001600073ffffffffffffffffffffffffffffffffffffffff1681526020016060815260200160008152602001600081526020016000815260200160008152602001600081525090565b5b808211156116ba5760008160009055506001016116a2565b5090565b6040518060600160405280600073ffffffffffffffffffffffffffffffffffffffff168152602001600073ffffffffffffffffffffffffffffffffffffffff168152602001600081525090565b60008135905061171a81612440565b92915050565b60008151905061172f81612440565b92915050565b600082601f83011261174657600080fd5b8151611759611754826122c4565b612297565b9150818183526020840193506020810190508385602084028201111561177e57600080fd5b60005b838110156117ae57816117948882611720565b845260208401935060208301925050600181019050611781565b5050505092915050565b6000815190506117c781612457565b92915050565b6000813590506117dc8161246e565b92915050565b6000815190506117f18161246e565b92915050565b60008083601f84011261180957600080fd5b8235905067ffffffffffffffff81111561182257600080fd5b60208301915083600182028301111561183a57600080fd5b9250929050565b600082601f83011261185257600080fd5b8151611865611860826122ec565b612297565b9150808252602083016020830185838301111561188157600080fd5b61188c8382846123fc565b50505092915050565b6000815190506118a481612485565b92915050565b6000815190506118b981612495565b92915050565b600082601f8301126118d057600080fd5b81516118e36118de82612318565b612297565b915080825260208301602083018583830111156118ff57600080fd5b61190a8382846123fc565b50505092915050565b60006102a0828403121561192657600080fd5b6119316101e0612297565b9050600061194184828501611a90565b600083015250606061195584828501611a90565b60208301525060c061196984828501611a90565b60408301525061012061197e84828501611cad565b60608301525061014061199384828501611cad565b6080830152506101606119a8848285016117e2565b60a0830152506101806119bd84828501611720565b60c0830152506101a06119d284828501611720565b60e0830152506101c06119e784828501611720565b610100830152506101e082015167ffffffffffffffff811115611a0957600080fd5b611a15848285016118bf565b61012083015250610200611a2b84828501611cad565b61014083015250610220611a4184828501611cad565b61016083015250610240611a5784828501611cad565b61018083015250610260611a6d84828501611cad565b6101a083015250610280611a8384828501611cad565b6101c08301525092915050565b600060608284031215611aa257600080fd5b611aac6060612297565b90506000611abc84828501611720565b6000830152506020611ad084828501611720565b6020830152506040611ae484828501611cad565b60408301525092915050565b60006101e08284031215611b0357600080fd5b611b0e6101e0612297565b90506000611b1e84828501611895565b6000830152506020611b32848285016117e2565b6020830152506040611b4684828501611cad565b6040830152506060611b5a84828501611cad565b6060830152506080611b6e84828501611cad565b60808301525060a0611b8284828501611cad565b60a08301525060c0611b9684828501611cad565b60c08301525060e0611baa848285016117e2565b60e083015250610100611bbf84828501611cad565b61010083015250610120611bd584828501611cad565b6101208301525061014082015167ffffffffffffffff811115611bf757600080fd5b611c0384828501611735565b61014083015250610160611c19848285016117e2565b6101608301525061018082015167ffffffffffffffff811115611c3b57600080fd5b611c4784828501611841565b610180830152506101a0611c5d84828501611cad565b6101a0830152506101c082015167ffffffffffffffff811115611c7f57600080fd5b611c8b84828501611841565b6101c08301525092915050565b600081359050611ca7816124ac565b92915050565b600081519050611cbc816124ac565b92915050565b600060208284031215611cd457600080fd5b6000611ce28482850161170b565b91505092915050565b600080600080600060a08688031215611d0357600080fd5b6000611d118882890161170b565b9550506020611d228882890161170b565b9450506040611d338882890161170b565b9350506060611d44888289016117cd565b9250506080611d5588828901611c98565b9150509295509295909350565b600060208284031215611d7457600080fd5b6000611d82848285016117b8565b91505092915050565b600060208284031215611d9d57600080fd5b6000611dab848285016117cd565b91505092915050565b600080600060408486031215611dc957600080fd5b6000611dd7868287016117cd565b935050602084013567ffffffffffffffff811115611df457600080fd5b611e00868287016117f7565b92509250509250925092565b60008060408385031215611e1f57600080fd5b6000611e2d858286016117e2565b925050602083015167ffffffffffffffff811115611e4a57600080fd5b611e5685828601611841565b9150509250929050565b600060208284031215611e7257600080fd5b6000611e80848285016118aa565b91505092915050565b600060208284031215611e9b57600080fd5b600082015167ffffffffffffffff811115611eb557600080fd5b611ec1848285016118bf565b91505092915050565b600060208284031215611edc57600080fd5b600082015167ffffffffffffffff811115611ef657600080fd5b611f0284828501611913565b91505092915050565b600060208284031215611f1d57600080fd5b600082015167ffffffffffffffff811115611f3757600080fd5b611f4384828501611af0565b91505092915050565b611f558161237c565b82525050565b611f648161238e565b82525050565b611f738161239a565b82525050565b6000611f8482612344565b611f8e818561235a565b9350611f9e8185602086016123fc565b611fa78161242f565b840191505092915050565b611fbb816123d8565b82525050565b611fca816123a4565b82525050565b6000611fdb8261234f565b611fe5818561236b565b9350611ff58185602086016123fc565b611ffe8161242f565b840191505092915050565b600061201660268361236b565b91507f4f776e61626c653a206e6577206f776e657220697320746865207a65726f206160008301527f64647265737300000000000000000000000000000000000000000000000000006020830152604082019050919050565b600061207c60208361236b565b91507f4f776e61626c653a2063616c6c6572206973206e6f7420746865206f776e65726000830152602082019050919050565b6120b8816123ce565b82525050565b60006020820190506120d36000830184611f4c565b92915050565b60006040820190506120ee6000830185611f5b565b6120fb60208301846120af565b9392505050565b60006020820190506121176000830184611f6a565b92915050565b60006040820190506121326000830185611f6a565b61213f60208301846120af565b9392505050565b600060408201905081810360008301526121608185611f79565b905061216f60208301846120af565b9392505050565b600060208201905061218b6000830184611fb2565b92915050565b60006040820190506121a66000830185611fc1565b6121b360208301846120af565b9392505050565b600060208201905081810360008301526121d48184611fd0565b905092915050565b600060408201905081810360008301526121f68185611fd0565b905061220560208301846120af565b9392505050565b6000602082019050818103600083015261222581612009565b9050919050565b600060208201905081810360008301526122458161206f565b9050919050565b600060208201905061226160008301846120af565b92915050565b600060408201905061227c60008301856120af565b818103602083015261228e8184611f79565b90509392505050565b6000604051905081810181811067ffffffffffffffff821117156122ba57600080fd5b8060405250919050565b600067ffffffffffffffff8211156122db57600080fd5b602082029050602081019050919050565b600067ffffffffffffffff82111561230357600080fd5b601f19601f8301169050602081019050919050565b600067ffffffffffffffff82111561232f57600080fd5b601f19601f8301169050602081019050919050565b600081519050919050565b600081519050919050565b600082825260208201905092915050565b600082825260208201905092915050565b6000612387826123ae565b9050919050565b60008115159050919050565b6000819050919050565b6000819050919050565b600073ffffffffffffffffffffffffffffffffffffffff82169050919050565b6000819050919050565b60006123e3826123ea565b9050919050565b60006123f5826123ae565b9050919050565b60005b8381101561241a5780820151818401526020810190506123ff565b83811115612429576000848401525b50505050565b6000601f19601f8301169050919050565b6124498161237c565b811461245457600080fd5b50565b6124608161238e565b811461246b57600080fd5b50565b6124778161239a565b811461248257600080fd5b50565b6005811061249257600080fd5b50565b61249e816123a4565b81146124a957600080fd5b50565b6124b5816123ce565b81146124c057600080fd5b5056fea2646970667358221220b90adbbbf92b0639bec69f25a859e3dbce35942dee04bbffadf30b984d0bfc9264736f6c634300060c0033",
  "immutableReferences": {},
  "source": "// SPDX-License-Identifier: Apache-2.0\n\n/******************************************************************************\n * Copyright 2021 IEXEC BLOCKCHAIN TECH                                       *\n *                                                                            *\n * Licensed under the Apache License, Version 2.0 (the \"License\");            *\n * you may not use this file except in compliance with the License.           *\n * You may obtain a copy of the License at                                    *\n *                                                                            *\n *     http://www.apache.org/licenses/LICENSE-2.0                             *\n *                                                                            *\n * Unless required by applicable law or agreed to in writing, software        *\n * distributed under the License is distributed on an \"AS IS\" BASIS,          *\n * WITHOUT WARRANTIES OR CONDITIONS OF ANY KIND, either express or implied.   *\n * See the License for the specific language governing permissions and        *\n * limitations under the License.                                             *\n ******************************************************************************/\n\npragma solidity ^0.6.0;\npragma experimental ABIEncoderV2;\n\nimport \"@openzeppelin/contracts/access/Ownable.sol\";\nimport \"@iexec/solidity/contracts/ERC1154/IERC1154.sol\";\nimport \"@iexec/doracle/contracts/IexecDoracle.sol\";\n\ncontract GenericOracle is IexecDoracle, Ownable, IOracleConsumer {\n    // Data storage\n    struct TimedRawValue {\n        bytes value;\n        uint256 date;\n    }\n\n    mapping(bytes32 => TimedRawValue) public values;\n\n    // Event\n    event ValueUpdated(\n        bytes32 indexed id,\n        bytes32 indexed oracleCallID,\n        uint256 date,\n        bytes value\n    );\n\n    // Use _iexecHubAddr to force use of custom iexechub, leave 0x0 for autodetect\n    constructor(address _iexecHubAddr) public IexecDoracle(_iexecHubAddr) {}\n\n    function updateEnv(\n        address _authorizedApp,\n        address _authorizedDataset,\n        address _authorizedWorkerpool,\n        bytes32 _requiredtag,\n        uint256 _requiredtrust\n    ) public onlyOwner {\n        _iexecDoracleUpdateSettings(\n            _authorizedApp,\n            _authorizedDataset,\n            _authorizedWorkerpool,\n            _requiredtag,\n            _requiredtrust\n        );\n    }\n\n    // ERC1154 - Callback processing\n    function receiveResult(bytes32 _callID, bytes calldata) external override {\n        // Parse results\n        (bytes32 id, bytes memory value) =\n            abi.decode(\n                _iexecDoracleGetVerifiedResult(_callID),\n                (bytes32, bytes)\n            );\n\n        values[id].date = now;\n        values[id].value = value;\n\n        emit ValueUpdated(id, _callID, now, value);\n    }\n\n    function getString(bytes32 _oracleId)\n        public\n        view\n        returns (string memory stringValue, uint256 date)\n    {\n        bytes memory value = values[_oracleId].value;\n        return (abi.decode(value, (string)), values[_oracleId].date);\n    }\n\n    function getRaw(bytes32 _oracleId)\n        public\n        view\n        returns (bytes memory bytesValue, uint256 date)\n    {\n        bytes memory value = values[_oracleId].value;\n        return (value, values[_oracleId].date);\n    }\n\n    function getInt(bytes32 _oracleId)\n        public\n        view\n        returns (int256 intValue, uint256 date)\n    {\n        bytes memory value = values[_oracleId].value;\n        return (abi.decode(value, (int256)), values[_oracleId].date);\n    }\n\n    function getBool(bytes32 _oracleId)\n        public\n        view\n        returns (bool boolValue, uint256 date)\n    {\n        bytes memory value = values[_oracleId].value;\n        return (abi.decode(value, (bool)), values[_oracleId].date);\n    }\n}\n",
  "sourcePath": "/home/ziki/generic-oracle-contracts/contracts/GenericOracle.sol",
  "compiler": {
    "name": "solc",
    "version": "0.6.12+commit.27d51765.Emscripten.clang"
  },
  "schemaVersion": "3.4.0",
  "updatedAt": "2021-05-07T09:06:23.784Z",
  "devdoc": {
    "kind": "dev",
    "methods": {
      "owner()": {
        "details": "Returns the address of the current owner."
      },
      "renounceOwnership()": {
        "details": "Leaves the contract without owner. It will not be possible to call `onlyOwner` functions anymore. Can only be called by the current owner. NOTE: Renouncing ownership will leave the contract without an owner, thereby removing any functionality that is only available to the owner."
      },
      "transferOwnership(address)": {
        "details": "Transfers ownership of the contract to a new account (`newOwner`). Can only be called by the current owner."
      }
    },
    "version": 1
  },
  "userdoc": {
    "kind": "user",
    "methods": {},
    "version": 1
  }
}