{
  "contractName": "IexecDoracle",
  "abi": [
    {
      "inputs": [
        {
          "internalType": "address",
          "name": "_iexecproxy",
          "type": "address"
        }
      ],
      "stateMutability": "nonpayable",
      "type": "constructor"
    },
    {
      "inputs": [],
      "name": "iexecproxy",
      "outputs": [
        {
          "internalType": "contract IexecInterfaceToken",
          "name": "",
          "type": "address"
        }
      ],
      "stateMutability": "view",
      "type": "function"
    },
    {
      "inputs": [],
      "name": "m_authorizedApp",
      "outputs": [
        {
          "internalType": "address",
          "name": "",
          "type": "address"
        }
      ],
      "stateMutability": "view",
      "type": "function"
    },
    {
      "inputs": [],
      "name": "m_authorizedDataset",
      "outputs": [
        {
          "internalType": "address",
          "name": "",
          "type": "address"
        }
      ],
      "stateMutability": "view",
      "type": "function"
    },
    {
      "inputs": [],
      "name": "m_authorizedWorkerpool",
      "outputs": [
        {
          "internalType": "address",
          "name": "",
          "type": "address"
        }
      ],
      "stateMutability": "view",
      "type": "function"
    },
    {
      "inputs": [],
      "name": "m_requiredtag",
      "outputs": [
        {
          "internalType": "bytes32",
          "name": "",
          "type": "bytes32"
        }
      ],
      "stateMutability": "view",
      "type": "function"
    },
    {
      "inputs": [],
      "name": "m_requiredtrust",
      "outputs": [
        {
          "internalType": "uint256",
          "name": "",
          "type": "uint256"
        }
      ],
      "stateMutability": "view",
      "type": "function"
    }
  ],
  "bytecode": "0x608060405234801561001057600080fd5b506040516105753803806105758339818101604052810190610032919061017e565b806100428161015060201b60201c565b1561008c57806000806101000a81548173ffffffffffffffffffffffffffffffffffffffff021916908373ffffffffffffffffffffffffffffffffffffffff160217905550610149565b6100af733eca1b216a7df1c7689aeb259ffb83adfb894e7f61015060201b60201c565b1561010d57733eca1b216a7df1c7689aeb259ffb83adfb894e7f6000806101000a81548173ffffffffffffffffffffffffffffffffffffffff021916908373ffffffffffffffffffffffffffffffffffffffff160217905550610148565b6040517f08c379a000000000000000000000000000000000000000000000000000000000815260040161013f906101e7565b60405180910390fd5b5b5050610261565b600080823b905060008163ffffffff1611915050919050565b6000815190506101788161024a565b92915050565b60006020828403121561019057600080fd5b600061019e84828501610169565b91505092915050565b60006101b4601a83610207565b91507f696e76616c69642d696578656370726f78792d616464726573730000000000006000830152602082019050919050565b60006020820190508181036000830152610200816101a7565b9050919050565b600082825260208201905092915050565b60006102238261022a565b9050919050565b600073ffffffffffffffffffffffffffffffffffffffff82169050919050565b61025381610218565b811461025e57600080fd5b50565b610305806102706000396000f3fe608060405234801561001057600080fd5b50600436106100625760003560e01c8063482fb13e1461006757806378dd4ae514610085578063ca2ef3c4146100a3578063e73482a2146100c1578063f075b666146100df578063f6eba547146100fd575b600080fd5b61006f61011b565b60405161007c91906101f9565b60405180910390f35b61008d610141565b60405161009a91906101f9565b60405180910390f35b6100ab610167565b6040516100b891906101f9565b60405180910390f35b6100c961018d565b6040516100d6919061024a565b60405180910390f35b6100e7610193565b6040516100f4919061022f565b60405180910390f35b6101056101b7565b6040516101129190610214565b60405180910390f35b600160009054906101000a900473ffffffffffffffffffffffffffffffffffffffff1681565b600260009054906101000a900473ffffffffffffffffffffffffffffffffffffffff1681565b600360009054906101000a900473ffffffffffffffffffffffffffffffffffffffff1681565b60055481565b60008054906101000a900473ffffffffffffffffffffffffffffffffffffffff1681565b60045481565b6101c681610265565b82525050565b6101d581610277565b82525050565b6101e4816102ab565b82525050565b6101f3816102a1565b82525050565b600060208201905061020e60008301846101bd565b92915050565b600060208201905061022960008301846101cc565b92915050565b600060208201905061024460008301846101db565b92915050565b600060208201905061025f60008301846101ea565b92915050565b600061027082610281565b9050919050565b6000819050919050565b600073ffffffffffffffffffffffffffffffffffffffff82169050919050565b6000819050919050565b60006102b6826102bd565b9050919050565b60006102c882610281565b905091905056fea264697066735822122029fa097bc4737bfd0a5d9f0387c9ac86e9a064b89ccb6b8d828673d399b47f8064736f6c634300060c0033",
  "immutableReferences": {},
  "source": "// SPDX-License-Identifier: Apache-2.0\n\n/******************************************************************************\n * Copyright 2020 IEXEC BLOCKCHAIN TECH                                       *\n *                                                                            *\n * Licensed under the Apache License, Version 2.0 (the \"License\");            *\n * you may not use this file except in compliance with the License.           *\n * You may obtain a copy of the License at                                    *\n *                                                                            *\n *     http://www.apache.org/licenses/LICENSE-2.0                             *\n *                                                                            *\n * Unless required by applicable law or agreed to in writing, software        *\n * distributed under the License is distributed on an \"AS IS\" BASIS,          *\n * WITHOUT WARRANTIES OR CONDITIONS OF ANY KIND, either express or implied.   *\n * See the License for the specific language governing permissions and        *\n * limitations under the License.                                             *\n ******************************************************************************/\n\npragma solidity ^0.6.0;\npragma experimental ABIEncoderV2;\n\nimport \"@iexec/interface/contracts/WithIexecToken.sol\";\nimport \"@iexec/solidity/contracts/ERC734/IERC734.sol\";\n\n\ncontract IexecDoracle is WithIexecToken\n{\n\taddress public m_authorizedApp;\n\taddress public m_authorizedDataset;\n\taddress public m_authorizedWorkerpool;\n\tbytes32 public m_requiredtag;\n\tuint256 public m_requiredtrust;\n\n\tconstructor(address _iexecproxy)\n\tpublic WithIexecToken(_iexecproxy)\n\t{}\n\n\tfunction _iexecDoracleUpdateSettings(\n\t\taddress _authorizedApp,\n\t\taddress _authorizedDataset,\n\t\taddress _authorizedWorkerpool,\n\t\tbytes32 _requiredtag,\n\t\tuint256 _requiredtrust)\n\tinternal\n\t{\n\t\tm_authorizedApp        = _authorizedApp;\n\t\tm_authorizedDataset    = _authorizedDataset;\n\t\tm_authorizedWorkerpool = _authorizedWorkerpool;\n\t\tm_requiredtag          = _requiredtag;\n\t\tm_requiredtrust        = _requiredtrust;\n\t}\n\n\tfunction _iexecDoracleGetResults(bytes32 _doracleCallId)\n\tinternal view returns (bool, bytes memory, string memory)\n\t{\n\t\tIexecLibCore_v5.Task memory task = iexecproxy.viewTask(_doracleCallId);\n\t\tIexecLibCore_v5.Deal memory deal = iexecproxy.viewDeal(task.dealid);\n\n\t\tif (task.status   != IexecLibCore_v5.TaskStatusEnum.COMPLETED                                                  ) { return (false, task.resultsCallback, \"result-not-available\"   );  }\n\t\tif (m_authorizedApp        != address(0) && !_checkIdentity(m_authorizedApp,        deal.app.pointer,        4)) { return (false, task.resultsCallback, \"unauthorized-app\"       );  }\n\t\tif (m_authorizedDataset    != address(0) && !_checkIdentity(m_authorizedDataset,    deal.dataset.pointer,    4)) { return (false, task.resultsCallback, \"unauthorized-dataset\"   );  }\n\t\tif (m_authorizedWorkerpool != address(0) && !_checkIdentity(m_authorizedWorkerpool, deal.workerpool.pointer, 4)) { return (false, task.resultsCallback, \"unauthorized-workerpool\");  }\n\t\tif (m_requiredtag & ~deal.tag != bytes32(0)                                                                    ) { return (false, task.resultsCallback, \"invalid-tag\"            );  }\n\t\tif (m_requiredtrust > deal.trust                                                                               ) { return (false, task.resultsCallback, \"invalid-trust\"          );  }\n\t\treturn (true, task.resultsCallback, \"\");\n\t}\n\n\tfunction _iexecDoracleGetVerifiedResult(bytes32 _doracleCallId)\n\tinternal view returns (bytes memory)\n\t{\n\t\t(bool success, bytes memory results, string memory message) = _iexecDoracleGetResults(_doracleCallId);\n\t\trequire(success, message);\n\t\treturn results;\n\t}\n\n\tfunction _checkIdentity(address _identity, address _candidate, uint256 _purpose)\n\tinternal view returns (bool valid)\n\t{\n\t\tif (_identity == _candidate)\n\t\t{\n\t\t\treturn true;\n\t\t}\n\t\tif (!_isContract(_identity))\n\t\t{\n\t\t\treturn false;\n\t\t}\n\t\ttry IERC734(_identity).keyHasPurpose(bytes32(uint256(_candidate)), _purpose) returns (bool value)\n\t\t{\n\t\t\treturn value;\n\t\t}\n\t\tcatch (bytes memory /*lowLevelData*/)\n\t\t{\n\t\t\treturn false;\n\t\t}\n\t}\n}\n",
  "sourcePath": "@iexec/doracle/contracts/IexecDoracle.sol",
  "compiler": {
    "name": "solc",
    "version": "0.6.12+commit.27d51765.Emscripten.clang"
  },
  "schemaVersion": "3.4.0",
  "updatedAt": "2021-05-07T09:06:23.791Z",
  "devdoc": {
    "kind": "dev",
    "methods": {},
    "version": 1
  },
  "userdoc": {
    "kind": "user",
    "methods": {},
    "version": 1
  }
}