{
  "contractName": "IexecLibOrders_v5",
  "abi": [
    {
      "inputs": [],
      "name": "APPORDEROPERATION_TYPEHASH",
      "outputs": [
        {
          "internalType": "bytes32",
          "name": "",
          "type": "bytes32"
        }
      ],
      "stateMutability": "view",
      "type": "function"
    },
    {
      "inputs": [],
      "name": "APPORDER_TYPEHASH",
      "outputs": [
        {
          "internalType": "bytes32",
          "name": "",
          "type": "bytes32"
        }
      ],
      "stateMutability": "view",
      "type": "function"
    },
    {
      "inputs": [],
      "name": "DATASETORDEROPERATION_TYPEHASH",
      "outputs": [
        {
          "internalType": "bytes32",
          "name": "",
          "type": "bytes32"
        }
      ],
      "stateMutability": "view",
      "type": "function"
    },
    {
      "inputs": [],
      "name": "DATASETORDER_TYPEHASH",
      "outputs": [
        {
          "internalType": "bytes32",
          "name": "",
          "type": "bytes32"
        }
      ],
      "stateMutability": "view",
      "type": "function"
    },
    {
      "inputs": [],
      "name": "EIP712DOMAIN_TYPEHASH",
      "outputs": [
        {
          "internalType": "bytes32",
          "name": "",
          "type": "bytes32"
        }
      ],
      "stateMutability": "view",
      "type": "function"
    },
    {
      "inputs": [],
      "name": "REQUESTORDEROPERATION_TYPEHASH",
      "outputs": [
        {
          "internalType": "bytes32",
          "name": "",
          "type": "bytes32"
        }
      ],
      "stateMutability": "view",
      "type": "function"
    },
    {
      "inputs": [],
      "name": "REQUESTORDER_TYPEHASH",
      "outputs": [
        {
          "internalType": "bytes32",
          "name": "",
          "type": "bytes32"
        }
      ],
      "stateMutability": "view",
      "type": "function"
    },
    {
      "inputs": [],
      "name": "WORKERPOOLORDEROPERATION_TYPEHASH",
      "outputs": [
        {
          "internalType": "bytes32",
          "name": "",
          "type": "bytes32"
        }
      ],
      "stateMutability": "view",
      "type": "function"
    },
    {
      "inputs": [],
      "name": "WORKERPOOLORDER_TYPEHASH",
      "outputs": [
        {
          "internalType": "bytes32",
          "name": "",
          "type": "bytes32"
        }
      ],
      "stateMutability": "view",
      "type": "function"
    },
    {
      "inputs": [
        {
          "components": [
            {
              "internalType": "address",
              "name": "dataset",
              "type": "address"
            },
            {
              "internalType": "uint256",
              "name": "datasetprice",
              "type": "uint256"
            },
            {
              "internalType": "uint256",
              "name": "volume",
              "type": "uint256"
            },
            {
              "internalType": "bytes32",
              "name": "tag",
              "type": "bytes32"
            },
            {
              "internalType": "address",
              "name": "apprestrict",
              "type": "address"
            },
            {
              "internalType": "address",
              "name": "workerpoolrestrict",
              "type": "address"
            },
            {
              "internalType": "address",
              "name": "requesterrestrict",
              "type": "address"
            },
            {
              "internalType": "bytes32",
              "name": "salt",
              "type": "bytes32"
            },
            {
              "internalType": "bytes",
              "name": "sign",
              "type": "bytes"
            }
          ],
          "internalType": "struct IexecLibOrders_v5.DatasetOrder",
          "name": "_datasetorder",
          "type": "tuple"
        }
      ],
      "name": "hash",
      "outputs": [
        {
          "internalType": "bytes32",
          "name": "datasethash",
          "type": "bytes32"
        }
      ],
      "stateMutability": "pure",
      "type": "function"
    },
    {
      "inputs": [
        {
          "components": [
            {
              "components": [
                {
                  "internalType": "address",
                  "name": "app",
                  "type": "address"
                },
                {
                  "internalType": "uint256",
                  "name": "appmaxprice",
                  "type": "uint256"
                },
                {
                  "internalType": "address",
                  "name": "dataset",
                  "type": "address"
                },
                {
                  "internalType": "uint256",
                  "name": "datasetmaxprice",
                  "type": "uint256"
                },
                {
                  "internalType": "address",
                  "name": "workerpool",
                  "type": "address"
                },
                {
                  "internalType": "uint256",
                  "name": "workerpoolmaxprice",
                  "type": "uint256"
                },
                {
                  "internalType": "address",
                  "name": "requester",
                  "type": "address"
                },
                {
                  "internalType": "uint256",
                  "name": "volume",
                  "type": "uint256"
                },
                {
                  "internalType": "bytes32",
                  "name": "tag",
                  "type": "bytes32"
                },
                {
                  "internalType": "uint256",
                  "name": "category",
                  "type": "uint256"
                },
                {
                  "internalType": "uint256",
                  "name": "trust",
                  "type": "uint256"
                },
                {
                  "internalType": "address",
                  "name": "beneficiary",
                  "type": "address"
                },
                {
                  "internalType": "address",
                  "name": "callback",
                  "type": "address"
                },
                {
                  "internalType": "string",
                  "name": "params",
                  "type": "string"
                },
                {
                  "internalType": "bytes32",
                  "name": "salt",
                  "type": "bytes32"
                },
                {
                  "internalType": "bytes",
                  "name": "sign",
                  "type": "bytes"
                }
              ],
              "internalType": "struct IexecLibOrders_v5.RequestOrder",
              "name": "order",
              "type": "tuple"
            },
            {
              "internalType": "enum IexecLibOrders_v5.OrderOperationEnum",
              "name": "operation",
              "type": "IexecLibOrders_v5.OrderOperationEnum"
            },
            {
              "internalType": "bytes",
              "name": "sign",
              "type": "bytes"
            }
          ],
          "internalType": "struct IexecLibOrders_v5.RequestOrderOperation",
          "name": "_requestorderoperation",
          "type": "tuple"
        }
      ],
      "name": "hash",
      "outputs": [
        {
          "internalType": "bytes32",
          "name": "",
          "type": "bytes32"
        }
      ],
      "stateMutability": "pure",
      "type": "function"
    },
    {
      "inputs": [
        {
          "components": [
            {
              "components": [
                {
                  "internalType": "address",
                  "name": "dataset",
                  "type": "address"
                },
                {
                  "internalType": "uint256",
                  "name": "datasetprice",
                  "type": "uint256"
                },
                {
                  "internalType": "uint256",
                  "name": "volume",
                  "type": "uint256"
                },
                {
                  "internalType": "bytes32",
                  "name": "tag",
                  "type": "bytes32"
                },
                {
                  "internalType": "address",
                  "name": "apprestrict",
                  "type": "address"
                },
                {
                  "internalType": "address",
                  "name": "workerpoolrestrict",
                  "type": "address"
                },
                {
                  "internalType": "address",
                  "name": "requesterrestrict",
                  "type": "address"
                },
                {
                  "internalType": "bytes32",
                  "name": "salt",
                  "type": "bytes32"
                },
                {
                  "internalType": "bytes",
                  "name": "sign",
                  "type": "bytes"
                }
              ],
              "internalType": "struct IexecLibOrders_v5.DatasetOrder",
              "name": "order",
              "type": "tuple"
            },
            {
              "internalType": "enum IexecLibOrders_v5.OrderOperationEnum",
              "name": "operation",
              "type": "IexecLibOrders_v5.OrderOperationEnum"
            },
            {
              "internalType": "bytes",
              "name": "sign",
              "type": "bytes"
            }
          ],
          "internalType": "struct IexecLibOrders_v5.DatasetOrderOperation",
          "name": "_datasetorderoperation",
          "type": "tuple"
        }
      ],
      "name": "hash",
      "outputs": [
        {
          "internalType": "bytes32",
          "name": "",
          "type": "bytes32"
        }
      ],
      "stateMutability": "pure",
      "type": "function"
    },
    {
      "inputs": [
        {
          "components": [
            {
              "components": [
                {
                  "internalType": "address",
                  "name": "workerpool",
                  "type": "address"
                },
                {
                  "internalType": "uint256",
                  "name": "workerpoolprice",
                  "type": "uint256"
                },
                {
                  "internalType": "uint256",
                  "name": "volume",
                  "type": "uint256"
                },
                {
                  "internalType": "bytes32",
                  "name": "tag",
                  "type": "bytes32"
                },
                {
                  "internalType": "uint256",
                  "name": "category",
                  "type": "uint256"
                },
                {
                  "internalType": "uint256",
                  "name": "trust",
                  "type": "uint256"
                },
                {
                  "internalType": "address",
                  "name": "apprestrict",
                  "type": "address"
                },
                {
                  "internalType": "address",
                  "name": "datasetrestrict",
                  "type": "address"
                },
                {
                  "internalType": "address",
                  "name": "requesterrestrict",
                  "type": "address"
                },
                {
                  "internalType": "bytes32",
                  "name": "salt",
                  "type": "bytes32"
                },
                {
                  "internalType": "bytes",
                  "name": "sign",
                  "type": "bytes"
                }
              ],
              "internalType": "struct IexecLibOrders_v5.WorkerpoolOrder",
              "name": "order",
              "type": "tuple"
            },
            {
              "internalType": "enum IexecLibOrders_v5.OrderOperationEnum",
              "name": "operation",
              "type": "IexecLibOrders_v5.OrderOperationEnum"
            },
            {
              "internalType": "bytes",
              "name": "sign",
              "type": "bytes"
            }
          ],
          "internalType": "struct IexecLibOrders_v5.WorkerpoolOrderOperation",
          "name": "_workerpoolorderoperation",
          "type": "tuple"
        }
      ],
      "name": "hash",
      "outputs": [
        {
          "internalType": "bytes32",
          "name": "",
          "type": "bytes32"
        }
      ],
      "stateMutability": "pure",
      "type": "function"
    },
    {
      "inputs": [
        {
          "components": [
            {
              "components": [
                {
                  "internalType": "address",
                  "name": "app",
                  "type": "address"
                },
                {
                  "internalType": "uint256",
                  "name": "appprice",
                  "type": "uint256"
                },
                {
                  "internalType": "uint256",
                  "name": "volume",
                  "type": "uint256"
                },
                {
                  "internalType": "bytes32",
                  "name": "tag",
                  "type": "bytes32"
                },
                {
                  "internalType": "address",
                  "name": "datasetrestrict",
                  "type": "address"
                },
                {
                  "internalType": "address",
                  "name": "workerpoolrestrict",
                  "type": "address"
                },
                {
                  "internalType": "address",
                  "name": "requesterrestrict",
                  "type": "address"
                },
                {
                  "internalType": "bytes32",
                  "name": "salt",
                  "type": "bytes32"
                },
                {
                  "internalType": "bytes",
                  "name": "sign",
                  "type": "bytes"
                }
              ],
              "internalType": "struct IexecLibOrders_v5.AppOrder",
              "name": "order",
              "type": "tuple"
            },
            {
              "internalType": "enum IexecLibOrders_v5.OrderOperationEnum",
              "name": "operation",
              "type": "IexecLibOrders_v5.OrderOperationEnum"
            },
            {
              "internalType": "bytes",
              "name": "sign",
              "type": "bytes"
            }
          ],
          "internalType": "struct IexecLibOrders_v5.AppOrderOperation",
          "name": "_apporderoperation",
          "type": "tuple"
        }
      ],
      "name": "hash",
      "outputs": [
        {
          "internalType": "bytes32",
          "name": "",
          "type": "bytes32"
        }
      ],
      "stateMutability": "pure",
      "type": "function"
    },
    {
      "inputs": [
        {
          "components": [
            {
              "internalType": "string",
              "name": "name",
              "type": "string"
            },
            {
              "internalType": "string",
              "name": "version",
              "type": "string"
            },
            {
              "internalType": "uint256",
              "name": "chainId",
              "type": "uint256"
            },
            {
              "internalType": "address",
              "name": "verifyingContract",
              "type": "address"
            }
          ],
          "internalType": "struct IexecLibOrders_v5.EIP712Domain",
          "name": "_domain",
          "type": "tuple"
        }
      ],
      "name": "hash",
      "outputs": [
        {
          "internalType": "bytes32",
          "name": "domainhash",
          "type": "bytes32"
        }
      ],
      "stateMutability": "pure",
      "type": "function"
    },
    {
      "inputs": [
        {
          "components": [
            {
              "internalType": "address",
              "name": "app",
              "type": "address"
            },
            {
              "internalType": "uint256",
              "name": "appprice",
              "type": "uint256"
            },
            {
              "internalType": "uint256",
              "name": "volume",
              "type": "uint256"
            },
            {
              "internalType": "bytes32",
              "name": "tag",
              "type": "bytes32"
            },
            {
              "internalType": "address",
              "name": "datasetrestrict",
              "type": "address"
            },
            {
              "internalType": "address",
              "name": "workerpoolrestrict",
              "type": "address"
            },
            {
              "internalType": "address",
              "name": "requesterrestrict",
              "type": "address"
            },
            {
              "internalType": "bytes32",
              "name": "salt",
              "type": "bytes32"
            },
            {
              "internalType": "bytes",
              "name": "sign",
              "type": "bytes"
            }
          ],
          "internalType": "struct IexecLibOrders_v5.AppOrder",
          "name": "_apporder",
          "type": "tuple"
        }
      ],
      "name": "hash",
      "outputs": [
        {
          "internalType": "bytes32",
          "name": "apphash",
          "type": "bytes32"
        }
      ],
      "stateMutability": "pure",
      "type": "function"
    },
    {
      "inputs": [
        {
          "components": [
            {
              "internalType": "address",
              "name": "app",
              "type": "address"
            },
            {
              "internalType": "uint256",
              "name": "appmaxprice",
              "type": "uint256"
            },
            {
              "internalType": "address",
              "name": "dataset",
              "type": "address"
            },
            {
              "internalType": "uint256",
              "name": "datasetmaxprice",
              "type": "uint256"
            },
            {
              "internalType": "address",
              "name": "workerpool",
              "type": "address"
            },
            {
              "internalType": "uint256",
              "name": "workerpoolmaxprice",
              "type": "uint256"
            },
            {
              "internalType": "address",
              "name": "requester",
              "type": "address"
            },
            {
              "internalType": "uint256",
              "name": "volume",
              "type": "uint256"
            },
            {
              "internalType": "bytes32",
              "name": "tag",
              "type": "bytes32"
            },
            {
              "internalType": "uint256",
              "name": "category",
              "type": "uint256"
            },
            {
              "internalType": "uint256",
              "name": "trust",
              "type": "uint256"
            },
            {
              "internalType": "address",
              "name": "beneficiary",
              "type": "address"
            },
            {
              "internalType": "address",
              "name": "callback",
              "type": "address"
            },
            {
              "internalType": "string",
              "name": "params",
              "type": "string"
            },
            {
              "internalType": "bytes32",
              "name": "salt",
              "type": "bytes32"
            },
            {
              "internalType": "bytes",
              "name": "sign",
              "type": "bytes"
            }
          ],
          "internalType": "struct IexecLibOrders_v5.RequestOrder",
          "name": "_requestorder",
          "type": "tuple"
        }
      ],
      "name": "hash",
      "outputs": [
        {
          "internalType": "bytes32",
          "name": "requesthash",
          "type": "bytes32"
        }
      ],
      "stateMutability": "pure",
      "type": "function"
    },
    {
      "inputs": [
        {
          "components": [
            {
              "internalType": "address",
              "name": "workerpool",
              "type": "address"
            },
            {
              "internalType": "uint256",
              "name": "workerpoolprice",
              "type": "uint256"
            },
            {
              "internalType": "uint256",
              "name": "volume",
              "type": "uint256"
            },
            {
              "internalType": "bytes32",
              "name": "tag",
              "type": "bytes32"
            },
            {
              "internalType": "uint256",
              "name": "category",
              "type": "uint256"
            },
            {
              "internalType": "uint256",
              "name": "trust",
              "type": "uint256"
            },
            {
              "internalType": "address",
              "name": "apprestrict",
              "type": "address"
            },
            {
              "internalType": "address",
              "name": "datasetrestrict",
              "type": "address"
            },
            {
              "internalType": "address",
              "name": "requesterrestrict",
              "type": "address"
            },
            {
              "internalType": "bytes32",
              "name": "salt",
              "type": "bytes32"
            },
            {
              "internalType": "bytes",
              "name": "sign",
              "type": "bytes"
            }
          ],
          "internalType": "struct IexecLibOrders_v5.WorkerpoolOrder",
          "name": "_workerpoolorder",
          "type": "tuple"
        }
      ],
      "name": "hash",
      "outputs": [
        {
          "internalType": "bytes32",
          "name": "workerpoolhash",
          "type": "bytes32"
        }
      ],
      "stateMutability": "pure",
      "type": "function"
    }
  ],
  "bytecode": "0x611a17610026600b82828239805160001a60731461001957fe5b30600052607381538281f3fe73000000000000000000000000000000000000000030146080604052600436106101205760003560e01c8063735f5619116100ac5780639a6f72ee1161007b5780639a6f72ee1461033b578063b75cdd5314610359578063c49f91d314610377578063c4b7bfc314610395578063fed985fe146103b357610120565b8063735f56191461028d57806374147c4d146102ab5780637c0d54d3146102db5780638ac03f331461030b57610120565b806359b123db116100f357806359b123db146101d35780635b559f6a146101f157806365db1dbb146102215780636cf30b8b1461023f5780636f84d2da1461026f57610120565b806311b2eee214610125578063207dbbfe1461015557806320aabe53146101735780634118eb98146101a3575b600080fd5b61013f600480360381019061013a9190611338565b6103e3565b60405161014c91906115eb565b60405180910390f35b61015d610466565b60405161016a91906115eb565b60405180910390f35b61018d600480360381019061018891906113ba565b61048d565b60405161019a91906115eb565b60405180910390f35b6101bd60048036038101906101b891906112f7565b6104f4565b6040516101ca91906115eb565b60405180910390f35b6101db61055b565b6040516101e891906115eb565b60405180910390f35b61020b6004803603810190610206919061143c565b610582565b60405161021891906115eb565b60405180910390f35b6102296105e9565b60405161023691906115eb565b60405180910390f35b61025960048036038101906102549190611275565b610610565b60405161026691906115eb565b60405180910390f35b610277610677565b60405161028491906115eb565b60405180910390f35b61029561069e565b6040516102a291906115eb565b60405180910390f35b6102c560048036038101906102c09190611379565b6106c5565b6040516102d291906115eb565b60405180910390f35b6102f560048036038101906102f091906112b6565b61073e565b60405161030291906115eb565b60405180910390f35b610325600480360381019061032091906113fb565b6107c1565b60405161033291906115eb565b60405180910390f35b6103436108ba565b60405161035091906115eb565b60405180910390f35b6103616108e1565b60405161036e91906115eb565b60405180910390f35b61037f610908565b60405161038c91906115eb565b60405180910390f35b61039d61092f565b6040516103aa91906115eb565b60405180910390f35b6103cd60048036038101906103c8919061147d565b610956565b6040516103da91906115eb565b60405180910390f35b60007f6cfc932a5a3d22c4359295b9f433edff52b60703fa47690a04a83e40933dd47c60001b826000015183602001518460400151856060015186608001518760a001518860c001518960e0015160405160200161044999989796959493929190611675565b604051602081830303815290604052805190602001209050919050565b7f60815a0eeec47dddf1615fe53b31d016c31444e01b9d796db365443a6445d00860001b81565b60007f0ded7b52c2d77595a40d242eca751df172b18e686326dbbed3f4748828af77c760001b6104c083600001516107c1565b83602001516040516020016104d793929190611800565b604051602081830303815290604052805190602001209050919050565b60007f075eb6f7578ff4292c241bd2484cd5c1d5e6ecc2ddd3317e1d8176b5a45865ec60001b61052783600001516103e3565b836020015160405160200161053e93929190611800565b604051602081830303815290604052805190602001209050919050565b7f322d980b7d7a6a1f7c39ff0c5445da6ae1d8e0393ff0dd468c8be3e2c864438860001b81565b60007f322d980b7d7a6a1f7c39ff0c5445da6ae1d8e0393ff0dd468c8be3e2c864438860001b6105b58360000151610956565b83602001516040516020016105cc93929190611800565b604051602081830303815290604052805190602001209050919050565b7faa3429fb281b34691803133d3d978a75bb77c617ed6bc9aa162b9b30920022bb60001b81565b60007f0638bb0702457e2b4b01be8a202579b8bf97e587fb4f2cc4d4aad01f21a06ee060001b610643836000015161073e565b836020015160405160200161065a93929190611800565b604051602081830303815290604052805190602001209050919050565b7f6cfc932a5a3d22c4359295b9f433edff52b60703fa47690a04a83e40933dd47c60001b81565b7f0ded7b52c2d77595a40d242eca751df172b18e686326dbbed3f4748828af77c760001b81565b60007f8b73c3c69bb8fe3d512ecc4cf759cc79239f7b179b0ffacaa9a75d522b39400f60001b826000015180519060200120836020015180519060200120846040015185606001516040516020016107219594939291906117ad565b604051602081830303815290604052805190602001209050919050565b60007f60815a0eeec47dddf1615fe53b31d016c31444e01b9d796db365443a6445d00860001b826000015183602001518460400151856060015186608001518760a001518860c001518960e001516040516020016107a499989796959493929190611675565b604051602081830303815290604052805190602001209050919050565b60007ff24e853034a3a450aba845a82914fbb564ad85accca6cf62be112a154520fae060001b826000015183602001518460400151856060015186608001518760a0015160405160200161081b9796959493929190611606565b6040516020818303038152906040528260c001518360e00151846101000151856101200151866101400151876101600151886101800151896101a00151805190602001208a6101c0015160405160200161087d9998979695949392919061155e565b60405160208183030381529060405260405160200161089d92919061153a565b604051602081830303815290604052805190602001209050919050565b7ff24e853034a3a450aba845a82914fbb564ad85accca6cf62be112a154520fae060001b81565b7f0638bb0702457e2b4b01be8a202579b8bf97e587fb4f2cc4d4aad01f21a06ee060001b81565b7f8b73c3c69bb8fe3d512ecc4cf759cc79239f7b179b0ffacaa9a75d522b39400f60001b81565b7f075eb6f7578ff4292c241bd2484cd5c1d5e6ecc2ddd3317e1d8176b5a45865ec60001b81565b60007faa3429fb281b34691803133d3d978a75bb77c617ed6bc9aa162b9b30920022bb60001b826000015183602001518460400151856060015186608001518760a001518860c001518960e001518a61010001518b61012001516040516020016109ca9b9a99989796959493929190611702565b604051602081830303815290604052805190602001209050919050565b6000813590506109f68161198c565b92915050565b600081359050610a0b816119a3565b92915050565b600082601f830112610a2257600080fd5b8135610a35610a3082611864565b611837565b91508082526020830160208301858383011115610a5157600080fd5b610a5c83828461193d565b50505092915050565b600081359050610a74816119ba565b92915050565b600082601f830112610a8b57600080fd5b8135610a9e610a9982611890565b611837565b91508082526020830160208301858383011115610aba57600080fd5b610ac583828461193d565b50505092915050565b600060608284031215610ae057600080fd5b610aea6060611837565b9050600082013567ffffffffffffffff811115610b0657600080fd5b610b1284828501610b5e565b6000830152506020610b2684828501610a65565b602083015250604082013567ffffffffffffffff811115610b4657600080fd5b610b5284828501610a11565b60408301525092915050565b60006101208284031215610b7157600080fd5b610b7c610120611837565b90506000610b8c848285016109e7565b6000830152506020610ba084828501611260565b6020830152506040610bb484828501611260565b6040830152506060610bc8848285016109fc565b6060830152506080610bdc848285016109e7565b60808301525060a0610bf0848285016109e7565b60a08301525060c0610c04848285016109e7565b60c08301525060e0610c18848285016109fc565b60e08301525061010082013567ffffffffffffffff811115610c3957600080fd5b610c4584828501610a11565b6101008301525092915050565b600060608284031215610c6457600080fd5b610c6e6060611837565b9050600082013567ffffffffffffffff811115610c8a57600080fd5b610c9684828501610ce2565b6000830152506020610caa84828501610a65565b602083015250604082013567ffffffffffffffff811115610cca57600080fd5b610cd684828501610a11565b60408301525092915050565b60006101208284031215610cf557600080fd5b610d00610120611837565b90506000610d10848285016109e7565b6000830152506020610d2484828501611260565b6020830152506040610d3884828501611260565b6040830152506060610d4c848285016109fc565b6060830152506080610d60848285016109e7565b60808301525060a0610d74848285016109e7565b60a08301525060c0610d88848285016109e7565b60c08301525060e0610d9c848285016109fc565b60e08301525061010082013567ffffffffffffffff811115610dbd57600080fd5b610dc984828501610a11565b6101008301525092915050565b600060808284031215610de857600080fd5b610df26080611837565b9050600082013567ffffffffffffffff811115610e0e57600080fd5b610e1a84828501610a7a565b600083015250602082013567ffffffffffffffff811115610e3a57600080fd5b610e4684828501610a7a565b6020830152506040610e5a84828501611260565b6040830152506060610e6e848285016109e7565b60608301525092915050565b600060608284031215610e8c57600080fd5b610e966060611837565b9050600082013567ffffffffffffffff811115610eb257600080fd5b610ebe84828501610f0a565b6000830152506020610ed284828501610a65565b602083015250604082013567ffffffffffffffff811115610ef257600080fd5b610efe84828501610a11565b60408301525092915050565b60006102008284031215610f1d57600080fd5b610f28610200611837565b90506000610f38848285016109e7565b6000830152506020610f4c84828501611260565b6020830152506040610f60848285016109e7565b6040830152506060610f7484828501611260565b6060830152506080610f88848285016109e7565b60808301525060a0610f9c84828501611260565b60a08301525060c0610fb0848285016109e7565b60c08301525060e0610fc484828501611260565b60e083015250610100610fd9848285016109fc565b61010083015250610120610fef84828501611260565b6101208301525061014061100584828501611260565b6101408301525061016061101b848285016109e7565b61016083015250610180611031848285016109e7565b610180830152506101a082013567ffffffffffffffff81111561105357600080fd5b61105f84828501610a7a565b6101a0830152506101c0611075848285016109fc565b6101c0830152506101e082013567ffffffffffffffff81111561109757600080fd5b6110a384828501610a11565b6101e08301525092915050565b6000606082840312156110c257600080fd5b6110cc6060611837565b9050600082013567ffffffffffffffff8111156110e857600080fd5b6110f484828501611140565b600083015250602061110884828501610a65565b602083015250604082013567ffffffffffffffff81111561112857600080fd5b61113484828501610a11565b60408301525092915050565b6000610160828403121561115357600080fd5b61115e610160611837565b9050600061116e848285016109e7565b600083015250602061118284828501611260565b602083015250604061119684828501611260565b60408301525060606111aa848285016109fc565b60608301525060806111be84828501611260565b60808301525060a06111d284828501611260565b60a08301525060c06111e6848285016109e7565b60c08301525060e06111fa848285016109e7565b60e08301525061010061120f848285016109e7565b61010083015250610120611225848285016109fc565b6101208301525061014082013567ffffffffffffffff81111561124757600080fd5b61125384828501610a11565b6101408301525092915050565b60008135905061126f816119ca565b92915050565b60006020828403121561128757600080fd5b600082013567ffffffffffffffff8111156112a157600080fd5b6112ad84828501610ace565b91505092915050565b6000602082840312156112c857600080fd5b600082013567ffffffffffffffff8111156112e257600080fd5b6112ee84828501610b5e565b91505092915050565b60006020828403121561130957600080fd5b600082013567ffffffffffffffff81111561132357600080fd5b61132f84828501610c52565b91505092915050565b60006020828403121561134a57600080fd5b600082013567ffffffffffffffff81111561136457600080fd5b61137084828501610ce2565b91505092915050565b60006020828403121561138b57600080fd5b600082013567ffffffffffffffff8111156113a557600080fd5b6113b184828501610dd6565b91505092915050565b6000602082840312156113cc57600080fd5b600082013567ffffffffffffffff8111156113e657600080fd5b6113f284828501610e7a565b91505092915050565b60006020828403121561140d57600080fd5b600082013567ffffffffffffffff81111561142757600080fd5b61143384828501610f0a565b91505092915050565b60006020828403121561144e57600080fd5b600082013567ffffffffffffffff81111561146857600080fd5b611474848285016110b0565b91505092915050565b60006020828403121561148f57600080fd5b600082013567ffffffffffffffff8111156114a957600080fd5b6114b584828501611140565b91505092915050565b6114c7816118d2565b82525050565b6114d6816118e4565b82525050565b6114e5816118e4565b82525050565b60006114f6826118bc565b61150081856118c7565b935061151081856020860161194c565b80840191505092915050565b6115258161192b565b82525050565b61153481611921565b82525050565b600061154682856114eb565b915061155282846114eb565b91508190509392505050565b600061012082019050611574600083018c6114be565b611581602083018b61152b565b61158e604083018a6114cd565b61159b606083018961152b565b6115a8608083018861152b565b6115b560a08301876114be565b6115c260c08301866114be565b6115cf60e08301856114cd565b6115dd6101008301846114cd565b9a9950505050505050505050565b600060208201905061160060008301846114dc565b92915050565b600060e08201905061161b600083018a6114cd565b61162860208301896114be565b611635604083018861152b565b61164260608301876114be565b61164f608083018661152b565b61165c60a08301856114be565b61166960c083018461152b565b98975050505050505050565b60006101208201905061168b600083018c6114cd565b611698602083018b6114be565b6116a5604083018a61152b565b6116b2606083018961152b565b6116bf60808301886114cd565b6116cc60a08301876114be565b6116d960c08301866114be565b6116e660e08301856114be565b6116f46101008301846114cd565b9a9950505050505050505050565b600061016082019050611718600083018e6114cd565b611725602083018d6114be565b611732604083018c61152b565b61173f606083018b61152b565b61174c608083018a6114cd565b61175960a083018961152b565b61176660c083018861152b565b61177360e08301876114be565b6117816101008301866114be565b61178f6101208301856114be565b61179d6101408301846114cd565b9c9b505050505050505050505050565b600060a0820190506117c260008301886114cd565b6117cf60208301876114cd565b6117dc60408301866114cd565b6117e9606083018561152b565b6117f660808301846114be565b9695505050505050565b600060608201905061181560008301866114cd565b61182260208301856114cd565b61182f604083018461151c565b949350505050565b6000604051905081810181811067ffffffffffffffff8211171561185a57600080fd5b8060405250919050565b600067ffffffffffffffff82111561187b57600080fd5b601f19601f8301169050602081019050919050565b600067ffffffffffffffff8211156118a757600080fd5b601f19601f8301169050602081019050919050565b600081519050919050565b600081905092915050565b60006118dd82611901565b9050919050565b6000819050919050565b60008190506118fc8261197f565b919050565b600073ffffffffffffffffffffffffffffffffffffffff82169050919050565b6000819050919050565b6000611936826118ee565b9050919050565b82818337600083830152505050565b60005b8381101561196a57808201518184015260208101905061194f565b83811115611979576000848401525b50505050565b6002811061198957fe5b50565b611995816118d2565b81146119a057600080fd5b50565b6119ac816118e4565b81146119b757600080fd5b50565b600281106119c757600080fd5b50565b6119d381611921565b81146119de57600080fd5b5056fea264697066735822122069e1ffb1bb73e0f40cac7a03ac554a9ab1688a270151d94a5d93372db5dea1b364736f6c634300060c0033",
  "immutableReferences": {},
  "source": "// SPDX-License-Identifier: Apache-2.0\n\n/******************************************************************************\n * Copyright 2020 IEXEC BLOCKCHAIN TECH                                       *\n *                                                                            *\n * Licensed under the Apache License, Version 2.0 (the \"License\");            *\n * you may not use this file except in compliance with the License.           *\n * You may obtain a copy of the License at                                    *\n *                                                                            *\n *     http://www.apache.org/licenses/LICENSE-2.0                             *\n *                                                                            *\n * Unless required by applicable law or agreed to in writing, software        *\n * distributed under the License is distributed on an \"AS IS\" BASIS,          *\n * WITHOUT WARRANTIES OR CONDITIONS OF ANY KIND, either express or implied.   *\n * See the License for the specific language governing permissions and        *\n * limitations under the License.                                             *\n ******************************************************************************/\n\npragma solidity ^0.6.0;\npragma experimental ABIEncoderV2;\n\n\nlibrary IexecLibOrders_v5\n{\n\t// bytes32 public constant             EIP712DOMAIN_TYPEHASH = keccak256('EIP712Domain(string name,string version,uint256 chainId,address verifyingContract)');\n\t// bytes32 public constant                 APPORDER_TYPEHASH = keccak256('AppOrder(address app,uint256 appprice,uint256 volume,bytes32 tag,address datasetrestrict,address workerpoolrestrict,address requesterrestrict,bytes32 salt)');\n\t// bytes32 public constant             DATASETORDER_TYPEHASH = keccak256('DatasetOrder(address dataset,uint256 datasetprice,uint256 volume,bytes32 tag,address apprestrict,address workerpoolrestrict,address requesterrestrict,bytes32 salt)');\n\t// bytes32 public constant          WORKERPOOLORDER_TYPEHASH = keccak256('WorkerpoolOrder(address workerpool,uint256 workerpoolprice,uint256 volume,bytes32 tag,uint256 category,uint256 trust,address apprestrict,address datasetrestrict,address requesterrestrict,bytes32 salt)');\n\t// bytes32 public constant             REQUESTORDER_TYPEHASH = keccak256('RequestOrder(address app,uint256 appmaxprice,address dataset,uint256 datasetmaxprice,address workerpool,uint256 workerpoolmaxprice,address requester,uint256 volume,bytes32 tag,uint256 category,uint256 trust,address beneficiary,address callback,string params,bytes32 salt)');\n\t// bytes32 public constant        APPORDEROPERATION_TYPEHASH = keccak256('AppOrderOperation(AppOrder order,uint256 operation)AppOrder(address app,uint256 appprice,uint256 volume,bytes32 tag,address datasetrestrict,address workerpoolrestrict,address requesterrestrict,bytes32 salt)');\n\t// bytes32 public constant    DATASETORDEROPERATION_TYPEHASH = keccak256('DatasetOrderOperation(DatasetOrder order,uint256 operation)DatasetOrder(address dataset,uint256 datasetprice,uint256 volume,bytes32 tag,address apprestrict,address workerpoolrestrict,address requesterrestrict,bytes32 salt)');\n\t// bytes32 public constant WORKERPOOLORDEROPERATION_TYPEHASH = keccak256('WorkerpoolOrderOperation(WorkerpoolOrder order,uint256 operation)WorkerpoolOrder(address workerpool,uint256 workerpoolprice,uint256 volume,bytes32 tag,uint256 category,uint256 trust,address apprestrict,address datasetrestrict,address requesterrestrict,bytes32 salt)');\n\t// bytes32 public constant    REQUESTORDEROPERATION_TYPEHASH = keccak256('RequestOrderOperation(RequestOrder order,uint256 operation)RequestOrder(address app,uint256 appmaxprice,address dataset,uint256 datasetmaxprice,address workerpool,uint256 workerpoolmaxprice,address requester,uint256 volume,bytes32 tag,uint256 category,uint256 trust,address beneficiary,address callback,string params,bytes32 salt)');\n\tbytes32 public constant             EIP712DOMAIN_TYPEHASH = 0x8b73c3c69bb8fe3d512ecc4cf759cc79239f7b179b0ffacaa9a75d522b39400f;\n\tbytes32 public constant                 APPORDER_TYPEHASH = 0x60815a0eeec47dddf1615fe53b31d016c31444e01b9d796db365443a6445d008;\n\tbytes32 public constant             DATASETORDER_TYPEHASH = 0x6cfc932a5a3d22c4359295b9f433edff52b60703fa47690a04a83e40933dd47c;\n\tbytes32 public constant          WORKERPOOLORDER_TYPEHASH = 0xaa3429fb281b34691803133d3d978a75bb77c617ed6bc9aa162b9b30920022bb;\n\tbytes32 public constant             REQUESTORDER_TYPEHASH = 0xf24e853034a3a450aba845a82914fbb564ad85accca6cf62be112a154520fae0;\n\tbytes32 public constant        APPORDEROPERATION_TYPEHASH = 0x0638bb0702457e2b4b01be8a202579b8bf97e587fb4f2cc4d4aad01f21a06ee0;\n\tbytes32 public constant    DATASETORDEROPERATION_TYPEHASH = 0x075eb6f7578ff4292c241bd2484cd5c1d5e6ecc2ddd3317e1d8176b5a45865ec;\n\tbytes32 public constant WORKERPOOLORDEROPERATION_TYPEHASH = 0x322d980b7d7a6a1f7c39ff0c5445da6ae1d8e0393ff0dd468c8be3e2c8644388;\n\tbytes32 public constant    REQUESTORDEROPERATION_TYPEHASH = 0x0ded7b52c2d77595a40d242eca751df172b18e686326dbbed3f4748828af77c7;\n\n\tenum OrderOperationEnum\n\t{\n\t\tSIGN,\n\t\tCLOSE\n\t}\n\n\tstruct EIP712Domain\n\t{\n\t\tstring  name;\n\t\tstring  version;\n\t\tuint256 chainId;\n\t\taddress verifyingContract;\n\t}\n\n\tstruct AppOrder\n\t{\n\t\taddress app;\n\t\tuint256 appprice;\n\t\tuint256 volume;\n\t\tbytes32 tag;\n\t\taddress datasetrestrict;\n\t\taddress workerpoolrestrict;\n\t\taddress requesterrestrict;\n\t\tbytes32 salt;\n\t\tbytes   sign;\n\t}\n\n\tstruct DatasetOrder\n\t{\n\t\taddress dataset;\n\t\tuint256 datasetprice;\n\t\tuint256 volume;\n\t\tbytes32 tag;\n\t\taddress apprestrict;\n\t\taddress workerpoolrestrict;\n\t\taddress requesterrestrict;\n\t\tbytes32 salt;\n\t\tbytes   sign;\n\t}\n\n\tstruct WorkerpoolOrder\n\t{\n\t\taddress workerpool;\n\t\tuint256 workerpoolprice;\n\t\tuint256 volume;\n\t\tbytes32 tag;\n\t\tuint256 category;\n\t\tuint256 trust;\n\t\taddress apprestrict;\n\t\taddress datasetrestrict;\n\t\taddress requesterrestrict;\n\t\tbytes32 salt;\n\t\tbytes   sign;\n\t}\n\n\tstruct RequestOrder\n\t{\n\t\taddress app;\n\t\tuint256 appmaxprice;\n\t\taddress dataset;\n\t\tuint256 datasetmaxprice;\n\t\taddress workerpool;\n\t\tuint256 workerpoolmaxprice;\n\t\taddress requester;\n\t\tuint256 volume;\n\t\tbytes32 tag;\n\t\tuint256 category;\n\t\tuint256 trust;\n\t\taddress beneficiary;\n\t\taddress callback;\n\t\tstring  params;\n\t\tbytes32 salt;\n\t\tbytes   sign;\n\t}\n\n\tstruct AppOrderOperation\n\t{\n\t\tAppOrder           order;\n\t\tOrderOperationEnum operation;\n\t\tbytes              sign;\n\t}\n\n\tstruct DatasetOrderOperation\n\t{\n\t\tDatasetOrder       order;\n\t\tOrderOperationEnum operation;\n\t\tbytes              sign;\n\t}\n\n\tstruct WorkerpoolOrderOperation\n\t{\n\t\tWorkerpoolOrder    order;\n\t\tOrderOperationEnum operation;\n\t\tbytes              sign;\n\t}\n\n\tstruct RequestOrderOperation\n\t{\n\t\tRequestOrder       order;\n\t\tOrderOperationEnum operation;\n\t\tbytes              sign;\n\t}\n\n\tfunction hash(EIP712Domain memory _domain)\n\tpublic pure returns (bytes32 domainhash)\n\t{\n\t\t/**\n\t\t * Readeable but expensive\n\t\t */\n\t\treturn keccak256(abi.encode(\n\t\t\tEIP712DOMAIN_TYPEHASH\n\t\t,\tkeccak256(bytes(_domain.name))\n\t\t,\tkeccak256(bytes(_domain.version))\n\t\t,\t_domain.chainId\n\t\t,\t_domain.verifyingContract\n\t\t));\n\t}\n\n\tfunction hash(AppOrder memory _apporder)\n\tpublic pure returns (bytes32 apphash)\n\t{\n\t\t/**\n\t\t * Readeable but expensive\n\t\t */\n\t\treturn keccak256(abi.encode(\n\t\t\tAPPORDER_TYPEHASH\n\t\t,\t_apporder.app\n\t\t,\t_apporder.appprice\n\t\t,\t_apporder.volume\n\t\t,\t_apporder.tag\n\t\t,\t_apporder.datasetrestrict\n\t\t,\t_apporder.workerpoolrestrict\n\t\t,\t_apporder.requesterrestrict\n\t\t,\t_apporder.salt\n\t\t));\n\t}\n\n\tfunction hash(DatasetOrder memory _datasetorder)\n\tpublic pure returns (bytes32 datasethash)\n\t{\n\t\t/**\n\t\t * Readeable but expensive\n\t\t */\n\t\treturn keccak256(abi.encode(\n\t\t\tDATASETORDER_TYPEHASH\n\t\t,\t_datasetorder.dataset\n\t\t,\t_datasetorder.datasetprice\n\t\t,\t_datasetorder.volume\n\t\t,\t_datasetorder.tag\n\t\t,\t_datasetorder.apprestrict\n\t\t,\t_datasetorder.workerpoolrestrict\n\t\t,\t_datasetorder.requesterrestrict\n\t\t,\t_datasetorder.salt\n\t\t));\n\t}\n\n\tfunction hash(WorkerpoolOrder memory _workerpoolorder)\n\tpublic pure returns (bytes32 workerpoolhash)\n\t{\n\t\t/**\n\t\t * Readeable but expensive\n\t\t */\n\t\treturn keccak256(abi.encode(\n\t\t\tWORKERPOOLORDER_TYPEHASH\n\t\t,\t_workerpoolorder.workerpool\n\t\t,\t_workerpoolorder.workerpoolprice\n\t\t,\t_workerpoolorder.volume\n\t\t,\t_workerpoolorder.tag\n\t\t,\t_workerpoolorder.category\n\t\t,\t_workerpoolorder.trust\n\t\t,\t_workerpoolorder.apprestrict\n\t\t,\t_workerpoolorder.datasetrestrict\n\t\t,\t_workerpoolorder.requesterrestrict\n\t\t,\t_workerpoolorder.salt\n\t\t));\n\t}\n\n\tfunction hash(RequestOrder memory _requestorder)\n\tpublic pure returns (bytes32 requesthash)\n\t{\n\t\t/**\n\t\t * Readeable but expensive\n\t\t */\n\t\treturn keccak256(abi.encodePacked(\n\t\t\tabi.encode(\n\t\t\t\tREQUESTORDER_TYPEHASH\n\t\t\t,\t_requestorder.app\n\t\t\t,\t_requestorder.appmaxprice\n\t\t\t,\t_requestorder.dataset\n\t\t\t,\t_requestorder.datasetmaxprice\n\t\t\t,\t_requestorder.workerpool\n\t\t\t,\t_requestorder.workerpoolmaxprice\n\t\t\t),\n\t\t\tabi.encode(\n\t\t\t\t_requestorder.requester\n\t\t\t,\t_requestorder.volume\n\t\t\t,\t_requestorder.tag\n\t\t\t,\t_requestorder.category\n\t\t\t,\t_requestorder.trust\n\t\t\t,\t_requestorder.beneficiary\n\t\t\t,\t_requestorder.callback\n\t\t\t,\tkeccak256(bytes(_requestorder.params))\n\t\t\t,\t_requestorder.salt\n\t\t\t)\n\t\t));\n\t}\n\n\tfunction hash(AppOrderOperation memory _apporderoperation)\n\tpublic pure returns (bytes32)\n\t{\n\t\treturn keccak256(abi.encode(\n\t\t\tAPPORDEROPERATION_TYPEHASH\n\t\t,\thash(_apporderoperation.order)\n\t\t,\t_apporderoperation.operation\n\t\t));\n\t}\n\n\tfunction hash(DatasetOrderOperation memory _datasetorderoperation)\n\tpublic pure returns (bytes32)\n\t{\n\t\treturn keccak256(abi.encode(\n\t\t\tDATASETORDEROPERATION_TYPEHASH\n\t\t,\thash(_datasetorderoperation.order)\n\t\t,\t_datasetorderoperation.operation\n\t\t));\n\t}\n\n\tfunction hash(WorkerpoolOrderOperation memory _workerpoolorderoperation)\n\tpublic pure returns (bytes32)\n\t{\n\t\treturn keccak256(abi.encode(\n\t\t\tWORKERPOOLORDEROPERATION_TYPEHASH\n\t\t,\thash(_workerpoolorderoperation.order)\n\t\t,\t_workerpoolorderoperation.operation\n\t\t));\n\t}\n\n\tfunction hash(RequestOrderOperation memory _requestorderoperation)\n\tpublic pure returns (bytes32)\n\t{\n\t\treturn keccak256(abi.encode(\n\t\t\tREQUESTORDEROPERATION_TYPEHASH\n\t\t,\thash(_requestorderoperation.order)\n\t\t,\t_requestorderoperation.operation\n\t\t));\n\t}\n}\n",
  "sourcePath": "@iexec/poco/contracts/libs/IexecLibOrders_v5.sol",
  "compiler": {
    "name": "solc",
    "version": "0.6.12+commit.27d51765.Emscripten.clang"
  },
  "schemaVersion": "3.4.0",
  "updatedAt": "2021-05-07T09:06:23.810Z",
  "devdoc": {
    "kind": "dev",
    "methods": {},
    "version": 1
  },
  "userdoc": {
    "kind": "user",
    "methods": {},
    "version": 1
  }
}