{
  "contractName": "WithIexecToken",
  "abi": [
    {
      "inputs": [
        {
          "internalType": "address",
          "name": "_iexecproxy",
          "type": "address"
        }
      ],
      "stateMutability": "nonpayable",
      "type": "constructor"
    },
    {
      "inputs": [],
      "name": "iexecproxy",
      "outputs": [
        {
          "internalType": "contract IexecInterfaceToken",
          "name": "",
          "type": "address"
        }
      ],
      "stateMutability": "view",
      "type": "function"
    }
  ],
  "bytecode": "0x608060405234801561001057600080fd5b506040516103753803806103758339818101604052810190610032919061017c565b6100418161014e60201b60201c565b1561008b57806000806101000a81548173ffffffffffffffffffffffffffffffffffffffff021916908373ffffffffffffffffffffffffffffffffffffffff160217905550610148565b6100ae733eca1b216a7df1c7689aeb259ffb83adfb894e7f61014e60201b60201c565b1561010c57733eca1b216a7df1c7689aeb259ffb83adfb894e7f6000806101000a81548173ffffffffffffffffffffffffffffffffffffffff021916908373ffffffffffffffffffffffffffffffffffffffff160217905550610147565b6040517f08c379a000000000000000000000000000000000000000000000000000000000815260040161013e906101e5565b60405180910390fd5b5b5061025f565b600080823b905060008163ffffffff1611915050919050565b60008151905061017681610248565b92915050565b60006020828403121561018e57600080fd5b600061019c84828501610167565b91505092915050565b60006101b2601a83610205565b91507f696e76616c69642d696578656370726f78792d616464726573730000000000006000830152602082019050919050565b600060208201905081810360008301526101fe816101a5565b9050919050565b600082825260208201905092915050565b600061022182610228565b9050919050565b600073ffffffffffffffffffffffffffffffffffffffff82169050919050565b61025181610216565b811461025c57600080fd5b50565b6101078061026e6000396000f3fe6080604052348015600f57600080fd5b506004361060285760003560e01c8063f075b66614602d575b600080fd5b60336047565b604051603e91906078565b60405180910390f35b60008054906101000a900473ffffffffffffffffffffffffffffffffffffffff1681565b60728160b1565b82525050565b6000602082019050608b6000830184606b565b92915050565b600073ffffffffffffffffffffffffffffffffffffffff82169050919050565b600060ba8260c1565b9050919050565b600060ca826091565b905091905056fea26469706673582212208201a8e3fcf262458091b720542258f0e83dbf5ad725e3a18527ab3a927d60e964736f6c634300060c0033",
  "immutableReferences": {},
  "source": "// SPDX-License-Identifier: Apache-2.0\n\n/******************************************************************************\n * Copyright 2020 IEXEC BLOCKCHAIN TECH                                       *\n *                                                                            *\n * Licensed under the Apache License, Version 2.0 (the \"License\");            *\n * you may not use this file except in compliance with the License.           *\n * You may obtain a copy of the License at                                    *\n *                                                                            *\n *     http://www.apache.org/licenses/LICENSE-2.0                             *\n *                                                                            *\n * Unless required by applicable law or agreed to in writing, software        *\n * distributed under the License is distributed on an \"AS IS\" BASIS,          *\n * WITHOUT WARRANTIES OR CONDITIONS OF ANY KIND, either express or implied.   *\n * See the License for the specific language governing permissions and        *\n * limitations under the License.                                             *\n ******************************************************************************/\n\npragma solidity >0.5.0 <0.7.0;\npragma experimental ABIEncoderV2;\n\nimport \"@iexec/poco/contracts/IexecInterfaceToken.sol\";\n\n\ncontract WithIexecToken\n{\n\taddress internal constant IEXECPROXY = 0x3eca1B216A7DF1C7689aEb259fFB83ADFB894E7f;\n\n\tIexecInterfaceToken public iexecproxy;\n\n\tconstructor(address _iexecproxy)\n\tpublic\n\t{\n\t\tif      (_isContract(_iexecproxy)) { iexecproxy = IexecInterfaceToken(payable(_iexecproxy)); }\n\t\telse if (_isContract(IEXECPROXY )) { iexecproxy = IexecInterfaceToken(payable(IEXECPROXY )); }\n\t\telse                               { revert(\"invalid-iexecproxy-address\");                   }\n\t}\n\n\tfunction _isContract(address _addr)\n\tinternal view returns (bool)\n\t{\n\t\tuint32 size;\n\t\tassembly { size := extcodesize(_addr) }\n\t\treturn size > 0;\n\t}\n}\n",
  "sourcePath": "@iexec/interface/contracts/WithIexecToken.sol",
  "compiler": {
    "name": "solc",
    "version": "0.6.12+commit.27d51765.Emscripten.clang"
  },
  "schemaVersion": "3.4.0",
  "updatedAt": "2021-05-07T09:06:23.797Z",
  "devdoc": {
    "kind": "dev",
    "methods": {},
    "version": 1
  },
  "userdoc": {
    "kind": "user",
    "methods": {},
    "version": 1
  }
}